{
  "_format": "hh-sol-artifact-1",
  "contractName": "WhaleOFT",
  "sourceName": "contracts/WhaleOFT.sol",
  "abi": [
    {
      "inputs": [
        {
          "internalType": "string",
          "name": "_name",
          "type": "string"
        },
        {
          "internalType": "string",
          "name": "_symbol",
          "type": "string"
        },
        {
          "internalType": "address",
          "name": "_lzEndpoint",
          "type": "address"
        },
        {
          "internalType": "address",
          "name": "_delegate",
          "type": "address"
        }
      ],
      "stateMutability": "nonpayable",
      "type": "constructor"
    },
    {
      "inputs": [
        {
          "internalType": "address",
          "name": "target",
          "type": "address"
        }
      ],
      "name": "AddressEmptyCode",
      "type": "error"
    },
    {
      "inputs": [
        {
          "internalType": "address",
          "name": "account",
          "type": "address"
        }
      ],
      "name": "AddressInsufficientBalance",
      "type": "error"
    },
    {
      "inputs": [
        {
          "internalType": "address",
          "name": "spender",
          "type": "address"
        },
        {
          "internalType": "uint256",
          "name": "allowance",
          "type": "uint256"
        },
        {
          "internalType": "uint256",
          "name": "needed",
          "type": "uint256"
        }
      ],
      "name": "ERC20InsufficientAllowance",
      "type": "error"
    },
    {
      "inputs": [
        {
          "internalType": "address",
          "name": "sender",
          "type": "address"
        },
        {
          "internalType": "uint256",
          "name": "balance",
          "type": "uint256"
        },
        {
          "internalType": "uint256",
          "name": "needed",
          "type": "uint256"
        }
      ],
      "name": "ERC20InsufficientBalance",
      "type": "error"
    },
    {
      "inputs": [
        {
          "internalType": "address",
          "name": "approver",
          "type": "address"
        }
      ],
      "name": "ERC20InvalidApprover",
      "type": "error"
    },
    {
      "inputs": [
        {
          "internalType": "address",
          "name": "receiver",
          "type": "address"
        }
      ],
      "name": "ERC20InvalidReceiver",
      "type": "error"
    },
    {
      "inputs": [
        {
          "internalType": "address",
          "name": "sender",
          "type": "address"
        }
      ],
      "name": "ERC20InvalidSender",
      "type": "error"
    },
    {
      "inputs": [
        {
          "internalType": "address",
          "name": "spender",
          "type": "address"
        }
      ],
      "name": "ERC20InvalidSpender",
      "type": "error"
    },
    {
      "inputs": [],
      "name": "FailedInnerCall",
      "type": "error"
    },
    {
      "inputs": [],
      "name": "InvalidDelegate",
      "type": "error"
    },
    {
      "inputs": [],
      "name": "InvalidEndpointCall",
      "type": "error"
    },
    {
      "inputs": [],
      "name": "InvalidLocalDecimals",
      "type": "error"
    },
    {
      "inputs": [
        {
          "internalType": "bytes",
          "name": "options",
          "type": "bytes"
        }
      ],
      "name": "InvalidOptions",
      "type": "error"
    },
    {
      "inputs": [],
      "name": "LzTokenUnavailable",
      "type": "error"
    },
    {
      "inputs": [
        {
          "internalType": "uint32",
          "name": "eid",
          "type": "uint32"
        }
      ],
      "name": "NoPeer",
      "type": "error"
    },
    {
      "inputs": [
        {
          "internalType": "uint256",
          "name": "msgValue",
          "type": "uint256"
        }
      ],
      "name": "NotEnoughNative",
      "type": "error"
    },
    {
      "inputs": [
        {
          "internalType": "address",
          "name": "addr",
          "type": "address"
        }
      ],
      "name": "OnlyEndpoint",
      "type": "error"
    },
    {
      "inputs": [
        {
          "internalType": "uint32",
          "name": "eid",
          "type": "uint32"
        },
        {
          "internalType": "bytes32",
          "name": "sender",
          "type": "bytes32"
        }
      ],
      "name": "OnlyPeer",
      "type": "error"
    },
    {
      "inputs": [],
      "name": "OnlySelf",
      "type": "error"
    },
    {
      "inputs": [
        {
          "internalType": "address",
          "name": "owner",
          "type": "address"
        }
      ],
      "name": "OwnableInvalidOwner",
      "type": "error"
    },
    {
      "inputs": [
        {
          "internalType": "address",
          "name": "account",
          "type": "address"
        }
      ],
      "name": "OwnableUnauthorizedAccount",
      "type": "error"
    },
    {
      "inputs": [
        {
          "internalType": "address",
          "name": "token",
          "type": "address"
        }
      ],
      "name": "SafeERC20FailedOperation",
      "type": "error"
    },
    {
      "inputs": [
        {
          "internalType": "bytes",
          "name": "result",
          "type": "bytes"
        }
      ],
      "name": "SimulationResult",
      "type": "error"
    },
    {
      "inputs": [
        {
          "internalType": "uint256",
          "name": "amountLD",
          "type": "uint256"
        },
        {
          "internalType": "uint256",
          "name": "minAmountLD",
          "type": "uint256"
        }
      ],
      "name": "SlippageExceeded",
      "type": "error"
    },
    {
      "anonymous": false,
      "inputs": [
        {
          "indexed": true,
          "internalType": "address",
          "name": "owner",
          "type": "address"
        },
        {
          "indexed": true,
          "internalType": "address",
          "name": "spender",
          "type": "address"
        },
        {
          "indexed": false,
          "internalType": "uint256",
          "name": "value",
          "type": "uint256"
        }
      ],
      "name": "Approval",
      "type": "event"
    },
    {
      "anonymous": false,
      "inputs": [
        {
          "components": [
            {
              "internalType": "uint32",
              "name": "eid",
              "type": "uint32"
            },
            {
              "internalType": "uint16",
              "name": "msgType",
              "type": "uint16"
            },
            {
              "internalType": "bytes",
              "name": "options",
              "type": "bytes"
            }
          ],
          "indexed": false,
          "internalType": "struct EnforcedOptionParam[]",
          "name": "_enforcedOptions",
          "type": "tuple[]"
        }
      ],
      "name": "EnforcedOptionSet",
      "type": "event"
    },
    {
      "anonymous": false,
      "inputs": [
        {
          "indexed": false,
          "internalType": "address",
          "name": "inspector",
          "type": "address"
        }
      ],
      "name": "MsgInspectorSet",
      "type": "event"
    },
    {
      "anonymous": false,
      "inputs": [
        {
          "indexed": true,
          "internalType": "bytes32",
          "name": "guid",
          "type": "bytes32"
        },
        {
          "indexed": false,
          "internalType": "uint32",
          "name": "srcEid",
          "type": "uint32"
        },
        {
          "indexed": true,
          "internalType": "address",
          "name": "toAddress",
          "type": "address"
        },
        {
          "indexed": false,
          "internalType": "uint256",
          "name": "amountReceivedLD",
          "type": "uint256"
        }
      ],
      "name": "OFTReceived",
      "type": "event"
    },
    {
      "anonymous": false,
      "inputs": [
        {
          "indexed": true,
          "internalType": "bytes32",
          "name": "guid",
          "type": "bytes32"
        },
        {
          "indexed": false,
          "internalType": "uint32",
          "name": "dstEid",
          "type": "uint32"
        },
        {
          "indexed": true,
          "internalType": "address",
          "name": "fromAddress",
          "type": "address"
        },
        {
          "indexed": false,
          "internalType": "uint256",
          "name": "amountSentLD",
          "type": "uint256"
        },
        {
          "indexed": false,
          "internalType": "uint256",
          "name": "amountReceivedLD",
          "type": "uint256"
        }
      ],
      "name": "OFTSent",
      "type": "event"
    },
    {
      "anonymous": false,
      "inputs": [
        {
          "indexed": true,
          "internalType": "address",
          "name": "previousOwner",
          "type": "address"
        },
        {
          "indexed": true,
          "internalType": "address",
          "name": "newOwner",
          "type": "address"
        }
      ],
      "name": "OwnershipTransferred",
      "type": "event"
    },
    {
      "anonymous": false,
      "inputs": [
        {
          "indexed": false,
          "internalType": "uint32",
          "name": "eid",
          "type": "uint32"
        },
        {
          "indexed": false,
          "internalType": "bytes32",
          "name": "peer",
          "type": "bytes32"
        }
      ],
      "name": "PeerSet",
      "type": "event"
    },
    {
      "anonymous": false,
      "inputs": [
        {
          "indexed": false,
          "internalType": "address",
          "name": "preCrimeAddress",
          "type": "address"
        }
      ],
      "name": "PreCrimeSet",
      "type": "event"
    },
    {
      "anonymous": false,
      "inputs": [
        {
          "indexed": true,
          "internalType": "address",
          "name": "from",
          "type": "address"
        },
        {
          "indexed": true,
          "internalType": "address",
          "name": "to",
          "type": "address"
        },
        {
          "indexed": false,
          "internalType": "uint256",
          "name": "value",
          "type": "uint256"
        }
      ],
      "name": "Transfer",
      "type": "event"
    },
    {
      "inputs": [],
      "name": "SEND",
      "outputs": [
        {
          "internalType": "uint16",
          "name": "",
          "type": "uint16"
        }
      ],
      "stateMutability": "view",
      "type": "function"
    },
    {
      "inputs": [],
      "name": "SEND_AND_CALL",
      "outputs": [
        {
          "internalType": "uint16",
          "name": "",
          "type": "uint16"
        }
      ],
      "stateMutability": "view",
      "type": "function"
    },
    {
      "inputs": [
        {
          "components": [
            {
              "internalType": "uint32",
              "name": "srcEid",
              "type": "uint32"
            },
            {
              "internalType": "bytes32",
              "name": "sender",
              "type": "bytes32"
            },
            {
              "internalType": "uint64",
              "name": "nonce",
              "type": "uint64"
            }
          ],
          "internalType": "struct Origin",
          "name": "origin",
          "type": "tuple"
        }
      ],
      "name": "allowInitializePath",
      "outputs": [
        {
          "internalType": "bool",
          "name": "",
          "type": "bool"
        }
      ],
      "stateMutability": "view",
      "type": "function"
    },
    {
      "inputs": [
        {
          "internalType": "address",
          "name": "owner",
          "type": "address"
        },
        {
          "internalType": "address",
          "name": "spender",
          "type": "address"
        }
      ],
      "name": "allowance",
      "outputs": [
        {
          "internalType": "uint256",
          "name": "",
          "type": "uint256"
        }
      ],
      "stateMutability": "view",
      "type": "function"
    },
    {
      "inputs": [],
      "name": "approvalRequired",
      "outputs": [
        {
          "internalType": "bool",
          "name": "",
          "type": "bool"
        }
      ],
      "stateMutability": "pure",
      "type": "function"
    },
    {
      "inputs": [
        {
          "internalType": "address",
          "name": "spender",
          "type": "address"
        },
        {
          "internalType": "uint256",
          "name": "value",
          "type": "uint256"
        }
      ],
      "name": "approve",
      "outputs": [
        {
          "internalType": "bool",
          "name": "",
          "type": "bool"
        }
      ],
      "stateMutability": "nonpayable",
      "type": "function"
    },
    {
      "inputs": [
        {
          "internalType": "address",
          "name": "account",
          "type": "address"
        }
      ],
      "name": "balanceOf",
      "outputs": [
        {
          "internalType": "uint256",
          "name": "",
          "type": "uint256"
        }
      ],
      "stateMutability": "view",
      "type": "function"
    },
    {
      "inputs": [
        {
          "internalType": "uint32",
          "name": "_eid",
          "type": "uint32"
        },
        {
          "internalType": "uint16",
          "name": "_msgType",
          "type": "uint16"
        },
        {
          "internalType": "bytes",
          "name": "_extraOptions",
          "type": "bytes"
        }
      ],
      "name": "combineOptions",
      "outputs": [
        {
          "internalType": "bytes",
          "name": "",
          "type": "bytes"
        }
      ],
      "stateMutability": "view",
      "type": "function"
    },
    {
      "inputs": [],
      "name": "decimalConversionRate",
      "outputs": [
        {
          "internalType": "uint256",
          "name": "",
          "type": "uint256"
        }
      ],
      "stateMutability": "view",
      "type": "function"
    },
    {
      "inputs": [],
      "name": "decimals",
      "outputs": [
        {
          "internalType": "uint8",
          "name": "",
          "type": "uint8"
        }
      ],
      "stateMutability": "view",
      "type": "function"
    },
    {
      "inputs": [],
      "name": "endpoint",
      "outputs": [
        {
          "internalType": "contract ILayerZeroEndpointV2",
          "name": "",
          "type": "address"
        }
      ],
      "stateMutability": "view",
      "type": "function"
    },
    {
      "inputs": [
        {
          "internalType": "uint32",
          "name": "eid",
          "type": "uint32"
        },
        {
          "internalType": "uint16",
          "name": "msgType",
          "type": "uint16"
        }
      ],
      "name": "enforcedOptions",
      "outputs": [
        {
          "internalType": "bytes",
          "name": "enforcedOption",
          "type": "bytes"
        }
      ],
      "stateMutability": "view",
      "type": "function"
    },
    {
      "inputs": [
        {
          "components": [
            {
              "internalType": "uint32",
              "name": "srcEid",
              "type": "uint32"
            },
            {
              "internalType": "bytes32",
              "name": "sender",
              "type": "bytes32"
            },
            {
              "internalType": "uint64",
              "name": "nonce",
              "type": "uint64"
            }
          ],
          "internalType": "struct Origin",
          "name": "",
          "type": "tuple"
        },
        {
          "internalType": "bytes",
          "name": "",
          "type": "bytes"
        },
        {
          "internalType": "address",
          "name": "_sender",
          "type": "address"
        }
      ],
      "name": "isComposeMsgSender",
      "outputs": [
        {
          "internalType": "bool",
          "name": "",
          "type": "bool"
        }
      ],
      "stateMutability": "view",
      "type": "function"
    },
    {
      "inputs": [
        {
          "internalType": "uint32",
          "name": "_eid",
          "type": "uint32"
        },
        {
          "internalType": "bytes32",
          "name": "_peer",
          "type": "bytes32"
        }
      ],
      "name": "isPeer",
      "outputs": [
        {
          "internalType": "bool",
          "name": "",
          "type": "bool"
        }
      ],
      "stateMutability": "view",
      "type": "function"
    },
    {
      "inputs": [
        {
          "components": [
            {
              "internalType": "uint32",
              "name": "srcEid",
              "type": "uint32"
            },
            {
              "internalType": "bytes32",
              "name": "sender",
              "type": "bytes32"
            },
            {
              "internalType": "uint64",
              "name": "nonce",
              "type": "uint64"
            }
          ],
          "internalType": "struct Origin",
          "name": "_origin",
          "type": "tuple"
        },
        {
          "internalType": "bytes32",
          "name": "_guid",
          "type": "bytes32"
        },
        {
          "internalType": "bytes",
          "name": "_message",
          "type": "bytes"
        },
        {
          "internalType": "address",
          "name": "_executor",
          "type": "address"
        },
        {
          "internalType": "bytes",
          "name": "_extraData",
          "type": "bytes"
        }
      ],
      "name": "lzReceive",
      "outputs": [],
      "stateMutability": "payable",
      "type": "function"
    },
    {
      "inputs": [
        {
          "components": [
            {
              "components": [
                {
                  "internalType": "uint32",
                  "name": "srcEid",
                  "type": "uint32"
                },
                {
                  "internalType": "bytes32",
                  "name": "sender",
                  "type": "bytes32"
                },
                {
                  "internalType": "uint64",
                  "name": "nonce",
                  "type": "uint64"
                }
              ],
              "internalType": "struct Origin",
              "name": "origin",
              "type": "tuple"
            },
            {
              "internalType": "uint32",
              "name": "dstEid",
              "type": "uint32"
            },
            {
              "internalType": "address",
              "name": "receiver",
              "type": "address"
            },
            {
              "internalType": "bytes32",
              "name": "guid",
              "type": "bytes32"
            },
            {
              "internalType": "uint256",
              "name": "value",
              "type": "uint256"
            },
            {
              "internalType": "address",
              "name": "executor",
              "type": "address"
            },
            {
              "internalType": "bytes",
              "name": "message",
              "type": "bytes"
            },
            {
              "internalType": "bytes",
              "name": "extraData",
              "type": "bytes"
            }
          ],
          "internalType": "struct InboundPacket[]",
          "name": "_packets",
          "type": "tuple[]"
        }
      ],
      "name": "lzReceiveAndRevert",
      "outputs": [],
      "stateMutability": "payable",
      "type": "function"
    },
    {
      "inputs": [
        {
          "components": [
            {
              "internalType": "uint32",
              "name": "srcEid",
              "type": "uint32"
            },
            {
              "internalType": "bytes32",
              "name": "sender",
              "type": "bytes32"
            },
            {
              "internalType": "uint64",
              "name": "nonce",
              "type": "uint64"
            }
          ],
          "internalType": "struct Origin",
          "name": "_origin",
          "type": "tuple"
        },
        {
          "internalType": "bytes32",
          "name": "_guid",
          "type": "bytes32"
        },
        {
          "internalType": "bytes",
          "name": "_message",
          "type": "bytes"
        },
        {
          "internalType": "address",
          "name": "_executor",
          "type": "address"
        },
        {
          "internalType": "bytes",
          "name": "_extraData",
          "type": "bytes"
        }
      ],
      "name": "lzReceiveSimulate",
      "outputs": [],
      "stateMutability": "payable",
      "type": "function"
    },
    {
      "inputs": [],
      "name": "msgInspector",
      "outputs": [
        {
          "internalType": "address",
          "name": "",
          "type": "address"
        }
      ],
      "stateMutability": "view",
      "type": "function"
    },
    {
      "inputs": [],
      "name": "name",
      "outputs": [
        {
          "internalType": "string",
          "name": "",
          "type": "string"
        }
      ],
      "stateMutability": "view",
      "type": "function"
    },
    {
      "inputs": [
        {
          "internalType": "uint32",
          "name": "",
          "type": "uint32"
        },
        {
          "internalType": "bytes32",
          "name": "",
          "type": "bytes32"
        }
      ],
      "name": "nextNonce",
      "outputs": [
        {
          "internalType": "uint64",
          "name": "nonce",
          "type": "uint64"
        }
      ],
      "stateMutability": "view",
      "type": "function"
    },
    {
      "inputs": [],
      "name": "oApp",
      "outputs": [
        {
          "internalType": "address",
          "name": "",
          "type": "address"
        }
      ],
      "stateMutability": "view",
      "type": "function"
    },
    {
      "inputs": [],
      "name": "oAppVersion",
      "outputs": [
        {
          "internalType": "uint64",
          "name": "senderVersion",
          "type": "uint64"
        },
        {
          "internalType": "uint64",
          "name": "receiverVersion",
          "type": "uint64"
        }
      ],
      "stateMutability": "pure",
      "type": "function"
    },
    {
      "inputs": [],
      "name": "oftVersion",
      "outputs": [
        {
          "internalType": "bytes4",
          "name": "interfaceId",
          "type": "bytes4"
        },
        {
          "internalType": "uint64",
          "name": "version",
          "type": "uint64"
        }
      ],
      "stateMutability": "pure",
      "type": "function"
    },
    {
      "inputs": [],
      "name": "owner",
      "outputs": [
        {
          "internalType": "address",
          "name": "",
          "type": "address"
        }
      ],
      "stateMutability": "view",
      "type": "function"
    },
    {
      "inputs": [
        {
          "internalType": "uint32",
          "name": "eid",
          "type": "uint32"
        }
      ],
      "name": "peers",
      "outputs": [
        {
          "internalType": "bytes32",
          "name": "peer",
          "type": "bytes32"
        }
      ],
      "stateMutability": "view",
      "type": "function"
    },
    {
      "inputs": [],
      "name": "preCrime",
      "outputs": [
        {
          "internalType": "address",
          "name": "",
          "type": "address"
        }
      ],
      "stateMutability": "view",
      "type": "function"
    },
    {
      "inputs": [
        {
          "components": [
            {
              "internalType": "uint32",
              "name": "dstEid",
              "type": "uint32"
            },
            {
              "internalType": "bytes32",
              "name": "to",
              "type": "bytes32"
            },
            {
              "internalType": "uint256",
              "name": "amountLD",
              "type": "uint256"
            },
            {
              "internalType": "uint256",
              "name": "minAmountLD",
              "type": "uint256"
            },
            {
              "internalType": "bytes",
              "name": "extraOptions",
              "type": "bytes"
            },
            {
              "internalType": "bytes",
              "name": "composeMsg",
              "type": "bytes"
            },
            {
              "internalType": "bytes",
              "name": "oftCmd",
              "type": "bytes"
            }
          ],
          "internalType": "struct SendParam",
          "name": "_sendParam",
          "type": "tuple"
        }
      ],
      "name": "quoteOFT",
      "outputs": [
        {
          "components": [
            {
              "internalType": "uint256",
              "name": "minAmountLD",
              "type": "uint256"
            },
            {
              "internalType": "uint256",
              "name": "maxAmountLD",
              "type": "uint256"
            }
          ],
          "internalType": "struct OFTLimit",
          "name": "oftLimit",
          "type": "tuple"
        },
        {
          "components": [
            {
              "internalType": "int256",
              "name": "feeAmountLD",
              "type": "int256"
            },
            {
              "internalType": "string",
              "name": "description",
              "type": "string"
            }
          ],
          "internalType": "struct OFTFeeDetail[]",
          "name": "oftFeeDetails",
          "type": "tuple[]"
        },
        {
          "components": [
            {
              "internalType": "uint256",
              "name": "amountSentLD",
              "type": "uint256"
            },
            {
              "internalType": "uint256",
              "name": "amountReceivedLD",
              "type": "uint256"
            }
          ],
          "internalType": "struct OFTReceipt",
          "name": "oftReceipt",
          "type": "tuple"
        }
      ],
      "stateMutability": "view",
      "type": "function"
    },
    {
      "inputs": [
        {
          "components": [
            {
              "internalType": "uint32",
              "name": "dstEid",
              "type": "uint32"
            },
            {
              "internalType": "bytes32",
              "name": "to",
              "type": "bytes32"
            },
            {
              "internalType": "uint256",
              "name": "amountLD",
              "type": "uint256"
            },
            {
              "internalType": "uint256",
              "name": "minAmountLD",
              "type": "uint256"
            },
            {
              "internalType": "bytes",
              "name": "extraOptions",
              "type": "bytes"
            },
            {
              "internalType": "bytes",
              "name": "composeMsg",
              "type": "bytes"
            },
            {
              "internalType": "bytes",
              "name": "oftCmd",
              "type": "bytes"
            }
          ],
          "internalType": "struct SendParam",
          "name": "_sendParam",
          "type": "tuple"
        },
        {
          "internalType": "bool",
          "name": "_payInLzToken",
          "type": "bool"
        }
      ],
      "name": "quoteSend",
      "outputs": [
        {
          "components": [
            {
              "internalType": "uint256",
              "name": "nativeFee",
              "type": "uint256"
            },
            {
              "internalType": "uint256",
              "name": "lzTokenFee",
              "type": "uint256"
            }
          ],
          "internalType": "struct MessagingFee",
          "name": "msgFee",
          "type": "tuple"
        }
      ],
      "stateMutability": "view",
      "type": "function"
    },
    {
      "inputs": [],
      "name": "renounceOwnership",
      "outputs": [],
      "stateMutability": "nonpayable",
      "type": "function"
    },
    {
      "inputs": [
        {
          "components": [
            {
              "internalType": "uint32",
              "name": "dstEid",
              "type": "uint32"
            },
            {
              "internalType": "bytes32",
              "name": "to",
              "type": "bytes32"
            },
            {
              "internalType": "uint256",
              "name": "amountLD",
              "type": "uint256"
            },
            {
              "internalType": "uint256",
              "name": "minAmountLD",
              "type": "uint256"
            },
            {
              "internalType": "bytes",
              "name": "extraOptions",
              "type": "bytes"
            },
            {
              "internalType": "bytes",
              "name": "composeMsg",
              "type": "bytes"
            },
            {
              "internalType": "bytes",
              "name": "oftCmd",
              "type": "bytes"
            }
          ],
          "internalType": "struct SendParam",
          "name": "_sendParam",
          "type": "tuple"
        },
        {
          "components": [
            {
              "internalType": "uint256",
              "name": "nativeFee",
              "type": "uint256"
            },
            {
              "internalType": "uint256",
              "name": "lzTokenFee",
              "type": "uint256"
            }
          ],
          "internalType": "struct MessagingFee",
          "name": "_fee",
          "type": "tuple"
        },
        {
          "internalType": "address",
          "name": "_refundAddress",
          "type": "address"
        }
      ],
      "name": "send",
      "outputs": [
        {
          "components": [
            {
              "internalType": "bytes32",
              "name": "guid",
              "type": "bytes32"
            },
            {
              "internalType": "uint64",
              "name": "nonce",
              "type": "uint64"
            },
            {
              "components": [
                {
                  "internalType": "uint256",
                  "name": "nativeFee",
                  "type": "uint256"
                },
                {
                  "internalType": "uint256",
                  "name": "lzTokenFee",
                  "type": "uint256"
                }
              ],
              "internalType": "struct MessagingFee",
              "name": "fee",
              "type": "tuple"
            }
          ],
          "internalType": "struct MessagingReceipt",
          "name": "msgReceipt",
          "type": "tuple"
        },
        {
          "components": [
            {
              "internalType": "uint256",
              "name": "amountSentLD",
              "type": "uint256"
            },
            {
              "internalType": "uint256",
              "name": "amountReceivedLD",
              "type": "uint256"
            }
          ],
          "internalType": "struct OFTReceipt",
          "name": "oftReceipt",
          "type": "tuple"
        }
      ],
      "stateMutability": "payable",
      "type": "function"
    },
    {
      "inputs": [
        {
          "internalType": "address",
          "name": "_delegate",
          "type": "address"
        }
      ],
      "name": "setDelegate",
      "outputs": [],
      "stateMutability": "nonpayable",
      "type": "function"
    },
    {
      "inputs": [
        {
          "components": [
            {
              "internalType": "uint32",
              "name": "eid",
              "type": "uint32"
            },
            {
              "internalType": "uint16",
              "name": "msgType",
              "type": "uint16"
            },
            {
              "internalType": "bytes",
              "name": "options",
              "type": "bytes"
            }
          ],
          "internalType": "struct EnforcedOptionParam[]",
          "name": "_enforcedOptions",
          "type": "tuple[]"
        }
      ],
      "name": "setEnforcedOptions",
      "outputs": [],
      "stateMutability": "nonpayable",
      "type": "function"
    },
    {
      "inputs": [
        {
          "internalType": "address",
          "name": "_msgInspector",
          "type": "address"
        }
      ],
      "name": "setMsgInspector",
      "outputs": [],
      "stateMutability": "nonpayable",
      "type": "function"
    },
    {
      "inputs": [
        {
          "internalType": "uint32",
          "name": "_eid",
          "type": "uint32"
        },
        {
          "internalType": "bytes32",
          "name": "_peer",
          "type": "bytes32"
        }
      ],
      "name": "setPeer",
      "outputs": [],
      "stateMutability": "nonpayable",
      "type": "function"
    },
    {
      "inputs": [
        {
          "internalType": "address",
          "name": "_preCrime",
          "type": "address"
        }
      ],
      "name": "setPreCrime",
      "outputs": [],
      "stateMutability": "nonpayable",
      "type": "function"
    },
    {
      "inputs": [],
      "name": "sharedDecimals",
      "outputs": [
        {
          "internalType": "uint8",
          "name": "",
          "type": "uint8"
        }
      ],
      "stateMutability": "pure",
      "type": "function"
    },
    {
      "inputs": [],
      "name": "symbol",
      "outputs": [
        {
          "internalType": "string",
          "name": "",
          "type": "string"
        }
      ],
      "stateMutability": "view",
      "type": "function"
    },
    {
      "inputs": [],
      "name": "token",
      "outputs": [
        {
          "internalType": "address",
          "name": "",
          "type": "address"
        }
      ],
      "stateMutability": "view",
      "type": "function"
    },
    {
      "inputs": [],
      "name": "totalSupply",
      "outputs": [
        {
          "internalType": "uint256",
          "name": "",
          "type": "uint256"
        }
      ],
      "stateMutability": "view",
      "type": "function"
    },
    {
      "inputs": [
        {
          "internalType": "address",
          "name": "to",
          "type": "address"
        },
        {
          "internalType": "uint256",
          "name": "value",
          "type": "uint256"
        }
      ],
      "name": "transfer",
      "outputs": [
        {
          "internalType": "bool",
          "name": "",
          "type": "bool"
        }
      ],
      "stateMutability": "nonpayable",
      "type": "function"
    },
    {
      "inputs": [
        {
          "internalType": "address",
          "name": "from",
          "type": "address"
        },
        {
          "internalType": "address",
          "name": "to",
          "type": "address"
        },
        {
          "internalType": "uint256",
          "name": "value",
          "type": "uint256"
        }
      ],
      "name": "transferFrom",
      "outputs": [
        {
          "internalType": "bool",
          "name": "",
          "type": "bool"
        }
      ],
      "stateMutability": "nonpayable",
      "type": "function"
    },
    {
      "inputs": [
        {
          "internalType": "address",
          "name": "newOwner",
          "type": "address"
        }
      ],
      "name": "transferOwnership",
      "outputs": [],
      "stateMutability": "nonpayable",
      "type": "function"
    }
  ],
  "bytecode": "0x60c06040523480156200001157600080fd5b50604051620036d6380380620036d68339810160408190526200003491620002d2565b83838383838360128484818181818d6001600160a01b0381166200007257604051631e4fbdf760e01b81526000600482015260240160405180910390fd5b6200007d8162000198565b506001600160a01b038083166080528116620000ac57604051632d618d8160e21b815260040160405180910390fd5b60805160405163ca5eb5e160e01b81526001600160a01b0383811660048301529091169063ca5eb5e190602401600060405180830381600087803b158015620000f457600080fd5b505af115801562000109573d6000803e3d6000fd5b505050505050505062000121620001e860201b60201c565b60ff168360ff16101562000148576040516301e9714b60e41b815260040160405180910390fd5b6200015560068462000377565b6200016290600a62000496565b60a052506008915062000178905083826200053f565b5060096200018782826200053f565b50505050505050505050506200060b565b600080546001600160a01b038381166001600160a01b0319831681178455604051919092169283917f8be0079c531659141344cd1fd0a4f28419497f9722a3daafe3b4186f6b6457e09190a35050565b600690565b634e487b7160e01b600052604160045260246000fd5b600082601f8301126200021557600080fd5b81516001600160401b0380821115620002325762000232620001ed565b604051601f8301601f19908116603f011681019082821181831017156200025d576200025d620001ed565b81604052838152602092508660208588010111156200027b57600080fd5b600091505b838210156200029f578582018301518183018401529082019062000280565b6000602085830101528094505050505092915050565b80516001600160a01b0381168114620002cd57600080fd5b919050565b60008060008060808587031215620002e957600080fd5b84516001600160401b03808211156200030157600080fd5b6200030f8883890162000203565b955060208701519150808211156200032657600080fd5b50620003358782880162000203565b9350506200034660408601620002b5565b91506200035660608601620002b5565b905092959194509250565b634e487b7160e01b600052601160045260246000fd5b60ff828116828216039081111562000393576200039362000361565b92915050565b600181815b80851115620003da578160001904821115620003be57620003be62000361565b80851615620003cc57918102915b93841c93908002906200039e565b509250929050565b600082620003f35750600162000393565b81620004025750600062000393565b81600181146200041b5760028114620004265762000446565b600191505062000393565b60ff8411156200043a576200043a62000361565b50506001821b62000393565b5060208310610133831016604e8410600b84101617156200046b575081810a62000393565b62000477838362000399565b80600019048211156200048e576200048e62000361565b029392505050565b6000620004a760ff841683620003e2565b9392505050565b600181811c90821680620004c357607f821691505b602082108103620004e457634e487b7160e01b600052602260045260246000fd5b50919050565b601f8211156200053a576000816000526020600020601f850160051c81016020861015620005155750805b601f850160051c820191505b81811015620005365782815560010162000521565b5050505b505050565b81516001600160401b038111156200055b576200055b620001ed565b62000573816200056c8454620004ae565b84620004ea565b602080601f831160018114620005ab5760008415620005925750858301515b600019600386901b1c1916600185901b17855562000536565b600085815260208120601f198616915b82811015620005dc57888601518255948401946001909101908401620005bb565b5085821015620005fb5787850151600019600388901b60f8161c191681555b5050505050600190811b01905550565b60805160a05161305f620006776000396000818161061e01528181611b1201528181611b870152611d770152600081816104dd0152818161098d01528181611067015281816112e6015281816116520152818161196101528181611e780152611f31015261305f6000f3fe6080604052600436106102515760003560e01c80637d25a05e11610139578063bb0b6a53116100b6578063d045a0dc1161007a578063d045a0dc14610755578063d424388514610768578063dd62ed3e14610788578063f2fde38b146107ce578063fc0c546a14610461578063ff7bd03d146107ee57600080fd5b8063bb0b6a53146106b4578063bc70b354146106e1578063bd815db014610701578063c7c7f5b314610714578063ca5eb5e11461073557600080fd5b8063963efcaa116100fd578063963efcaa1461060c5780639f68b96414610640578063a9059cbb14610654578063b731ea0a14610674578063b98bd0701461069457600080fd5b80637d25a05e1461056a57806382413eac146105a5578063857749b0146105c55780638da5cb5b146105d957806395d89b41146105f757600080fd5b806323b872dd116101d25780635535d461116101965780635535d461146104745780635a0dfe4d146104945780635e280f11146104cb5780636fc1b31e146104ff57806370a082311461051f578063715018a61461055557600080fd5b806323b872dd146103d2578063313ce567146103f25780633400288b146104145780633b6f743b1461043457806352ae28791461046157600080fd5b8063134d4f2511610219578063134d4f251461032d578063156a0d0f1461035557806317442b701461037c57806318160ddd1461039e5780631f5e1334146103bd57600080fd5b806306fdde0314610256578063095ea7b3146102815780630d35b415146102b1578063111ecdad146102e057806313137d6514610318575b600080fd5b34801561026257600080fd5b5061026b61080e565b60405161027891906121cf565b60405180910390f35b34801561028d57600080fd5b506102a161029c3660046121f7565b6108a0565b6040519015158152602001610278565b3480156102bd57600080fd5b506102d16102cc36600461223b565b6108ba565b6040516102789392919061226f565b3480156102ec57600080fd5b50600454610300906001600160a01b031681565b6040516001600160a01b039091168152602001610278565b61032b610326366004612362565b61098b565b005b34801561033957600080fd5b50610342600281565b60405161ffff9091168152602001610278565b34801561036157600080fd5b506040805162b9270b60e21b81526001602082015201610278565b34801561038857600080fd5b5060408051600181526002602082015201610278565b3480156103aa57600080fd5b506007545b604051908152602001610278565b3480156103c957600080fd5b50610342600181565b3480156103de57600080fd5b506102a16103ed366004612401565b610a4b565b3480156103fe57600080fd5b5060125b60405160ff9091168152602001610278565b34801561042057600080fd5b5061032b61042f36600461245b565b610a71565b34801561044057600080fd5b5061045461044f366004612485565b610a87565b60405161027891906124d6565b34801561046d57600080fd5b5030610300565b34801561048057600080fd5b5061026b61048f3660046124ff565b610aee565b3480156104a057600080fd5b506102a16104af36600461245b565b63ffffffff919091166000908152600160205260409020541490565b3480156104d757600080fd5b506103007f000000000000000000000000000000000000000000000000000000000000000081565b34801561050b57600080fd5b5061032b61051a366004612532565b610b93565b34801561052b57600080fd5b506103af61053a366004612532565b6001600160a01b031660009081526005602052604090205490565b34801561056157600080fd5b5061032b610bf0565b34801561057657600080fd5b5061058d61058536600461245b565b600092915050565b6040516001600160401b039091168152602001610278565b3480156105b157600080fd5b506102a16105c036600461254f565b610c04565b3480156105d157600080fd5b506006610402565b3480156105e557600080fd5b506000546001600160a01b0316610300565b34801561060357600080fd5b5061026b610c19565b34801561061857600080fd5b506103af7f000000000000000000000000000000000000000000000000000000000000000081565b34801561064c57600080fd5b5060006102a1565b34801561066057600080fd5b506102a161066f3660046121f7565b610c28565b34801561068057600080fd5b50600254610300906001600160a01b031681565b3480156106a057600080fd5b5061032b6106af3660046125f9565b610c36565b3480156106c057600080fd5b506103af6106cf36600461263a565b60016020526000908152604090205481565b3480156106ed57600080fd5b5061026b6106fc366004612655565b610c48565b61032b61070f3660046125f9565b610dbb565b6107276107223660046126b5565b610f45565b604051610278929190612722565b34801561074157600080fd5b5061032b610750366004612532565b611040565b61032b610763366004612362565b6110c6565b34801561077457600080fd5b5061032b610783366004612532565b6110f5565b34801561079457600080fd5b506103af6107a3366004612774565b6001600160a01b03918216600090815260066020908152604080832093909416825291909152205490565b3480156107da57600080fd5b5061032b6107e9366004612532565b61114b565b3480156107fa57600080fd5b506102a16108093660046127a2565b611189565b60606008805461081d906127be565b80601f0160208091040260200160405190810160405280929190818152602001828054610849906127be565b80156108965780601f1061086b57610100808354040283529160200191610896565b820191906000526020600020905b81548152906001019060200180831161087957829003601f168201915b5050505050905090565b6000336108ae8185856111bf565b60019150505b92915050565b604080518082019091526000808252602082015260606108ed604051806040016040528060008152602001600081525090565b60408051808201825260008082526001600160401b03602080840182905284518381529081019094529195509182610948565b6040805180820190915260008152606060208201528152602001906001900390816109205790505b50935060008061096d604089013560608a013561096860208c018c61263a565b6111d1565b60408051808201909152918252602082015296989597505050505050565b7f00000000000000000000000000000000000000000000000000000000000000006001600160a01b031633146109db576040516391ac5e4f60e01b81523360048201526024015b60405180910390fd5b602087018035906109f5906109f0908a61263a565b611215565b14610a3357610a07602088018861263a565b60405163309afaf360e21b815263ffffffff9091166004820152602088013560248201526044016109d2565b610a4287878787878787611251565b50505050505050565b600033610a598582856113b8565b610a64858585611436565b60019150505b9392505050565b610a79611495565b610a8382826114c2565b5050565b60408051808201909152600080825260208201526000610ab760408501356060860135610968602088018861263a565b915050600080610ac78684611518565b9092509050610ae4610adc602088018861263a565b83838861163c565b9695505050505050565b600360209081526000928352604080842090915290825290208054610b12906127be565b80601f0160208091040260200160405190810160405280929190818152602001828054610b3e906127be565b8015610b8b5780601f10610b6057610100808354040283529160200191610b8b565b820191906000526020600020905b815481529060010190602001808311610b6e57829003601f168201915b505050505081565b610b9b611495565b600480546001600160a01b0319166001600160a01b0383169081179091556040519081527ff0be4f1e87349231d80c36b33f9e8639658eeaf474014dee15a3e6a4d4414197906020015b60405180910390a150565b610bf8611495565b610c02600061171d565b565b6001600160a01b03811630145b949350505050565b60606009805461081d906127be565b6000336108ae818585611436565b610c3e611495565b610a83828261176d565b63ffffffff8416600090815260036020908152604080832061ffff87168452909152812080546060929190610c7c906127be565b80601f0160208091040260200160405190810160405280929190818152602001828054610ca8906127be565b8015610cf55780601f10610cca57610100808354040283529160200191610cf5565b820191906000526020600020905b815481529060010190602001808311610cd857829003601f168201915b505050505090508051600003610d455783838080601f016020809104026020016040519081016040528093929190818152602001838380828437600092019190915250929450610c119350505050565b6000839003610d55579050610c11565b60028310610d9e57610d6784846118c6565b80610d758460028188612808565b604051602001610d8793929190612832565b604051602081830303815290604052915050610c11565b8383604051639a6d49cd60e01b81526004016109d2929190612883565b60005b81811015610ec45736838383818110610dd957610dd9612897565b9050602002810190610deb91906128ad565b9050610e1e610dfd602083018361263a565b602083013563ffffffff919091166000908152600160205260409020541490565b610e285750610ebc565b3063d045a0dc60c08301358360a0810135610e476101008301836128ce565b610e58610100890160e08a01612532565b610e666101208a018a6128ce565b6040518963ffffffff1660e01b8152600401610e889796959493929190612929565b6000604051808303818588803b158015610ea157600080fd5b505af1158015610eb5573d6000803e3d6000fd5b5050505050505b600101610dbe565b50336001600160a01b0316638e9e70996040518163ffffffff1660e01b8152600401600060405180830381865afa158015610f03573d6000803e3d6000fd5b505050506040513d6000823e601f3d908101601f19168201604052610f2b91908101906129d7565b604051638351eea760e01b81526004016109d291906121cf565b610f4d612138565b6040805180820190915260008082526020820152600080610f8433604089013560608a0135610f7f60208c018c61263a565b611908565b91509150600080610f958984611518565b9092509050610fc1610faa60208b018b61263a565b8383610fbb368d90038d018d612a78565b8b61192e565b60408051808201909152858152602080820186905282519298509096503391907f85496b760a4b7f8d66384b9df21b381f5d1b1e79f229a47aaf4c232edc2fe59a9061100f908d018d61263a565b6040805163ffffffff909216825260208201899052810187905260600160405180910390a350505050935093915050565b611048611495565b60405163ca5eb5e160e01b81526001600160a01b0382811660048301527f0000000000000000000000000000000000000000000000000000000000000000169063ca5eb5e190602401600060405180830381600087803b1580156110ab57600080fd5b505af11580156110bf573d6000803e3d6000fd5b5050505050565b3330146110e65760405163029a949d60e31b815260040160405180910390fd5b610a4287878787878787610a33565b6110fd611495565b600280546001600160a01b0319166001600160a01b0383169081179091556040519081527fd48d879cef83a1c0bdda516f27b13ddb1b3f8bbac1c9e1511bb2a659c242776090602001610be5565b611153611495565b6001600160a01b03811661117d57604051631e4fbdf760e01b8152600060048201526024016109d2565b6111868161171d565b50565b60006020820180359060019083906111a1908661263a565b63ffffffff1681526020810191909152604001600020541492915050565b6111cc8383836001611a39565b505050565b6000806111dd85611b0e565b91508190508381101561120d576040516371c4efed60e01b815260048101829052602481018590526044016109d2565b935093915050565b63ffffffff8116600090815260016020526040812054806108b45760405163f6ff4fb760e01b815263ffffffff841660048201526024016109d2565b60006112636112608787611b45565b90565b9050600061128f8261127d6112788a8a611b5d565b611b80565b61128a60208d018d61263a565b611bb5565b905060288611156113565760006112cc6112af60608c0160408d01612aaa565b6112bc60208d018d61263a565b846112c78c8c611bc9565b611c14565b604051633e5ac80960e11b81529091506001600160a01b037f00000000000000000000000000000000000000000000000000000000000000001690637cb59012906113229086908d906000908790600401612ac7565b600060405180830381600087803b15801561133c57600080fd5b505af1158015611350573d6000803e3d6000fd5b50505050505b6001600160a01b038216887fefed6d3500546b29533b128a29e3a94d70788727f0507505ac12eaf2e578fd9c61138f60208d018d61263a565b6040805163ffffffff9092168252602082018690520160405180910390a3505050505050505050565b6001600160a01b038381166000908152600660209081526040808320938616835292905220546000198114611430578181101561142157604051637dc7a0d960e11b81526001600160a01b038416600482015260248101829052604481018390526064016109d2565b61143084848484036000611a39565b50505050565b6001600160a01b03831661146057604051634b637e8f60e11b8152600060048201526024016109d2565b6001600160a01b03821661148a5760405163ec442f0560e01b8152600060048201526024016109d2565b6111cc838383611c46565b6000546001600160a01b03163314610c025760405163118cdaa760e01b81523360048201526024016109d2565b63ffffffff8216600081815260016020908152604091829020849055815192835282018390527f238399d427b947898edb290f5ff0f9109849b1c3ba196a42e35f00c50a54b98b91015b60405180910390a15050565b6060806000611575856020013561152e86611d70565b61153b60a08901896128ce565b8080601f016020809104026020016040519081016040528093929190818152602001838380828437600092019190915250611d9c92505050565b909350905060008161158857600161158b565b60025b90506115ab61159d602088018861263a565b826106fc60808a018a6128ce565b6004549093506001600160a01b031615611633576004805460405163043a78eb60e01b81526001600160a01b039091169163043a78eb916115f0918891889101612af8565b602060405180830381865afa15801561160d573d6000803e3d6000fd5b505050506040513d601f19601f820116820180604052508101906116319190612b1d565b505b50509250929050565b60408051808201909152600080825260208201527f00000000000000000000000000000000000000000000000000000000000000006001600160a01b031663ddc28c586040518060a001604052808863ffffffff16815260200161169f89611215565b8152602001878152602001868152602001851515815250306040518363ffffffff1660e01b81526004016116d4929190612b3a565b6040805180830381865afa1580156116f0573d6000803e3d6000fd5b505050506040513d601f19601f820116820180604052508101906117149190612be3565b95945050505050565b600080546001600160a01b038381166001600160a01b0319831681178455604051919092169283917f8be0079c531659141344cd1fd0a4f28419497f9722a3daafe3b4186f6b6457e09190a35050565b60005b81811015611894576117b283838381811061178d5761178d612897565b905060200281019061179f9190612bff565b6117ad9060408101906128ce565b6118c6565b8282828181106117c4576117c4612897565b90506020028101906117d69190612bff565b6117e49060408101906128ce565b600360008686868181106117fa576117fa612897565b905060200281019061180c9190612bff565b61181a90602081019061263a565b63ffffffff1663ffffffff168152602001908152602001600020600086868681811061184857611848612897565b905060200281019061185a9190612bff565b61186b906040810190602001612c15565b61ffff16815260208101919091526040016000209161188b919083612c80565b50600101611770565b507fbe4864a8e820971c0247f5992e2da559595f7bf076a21cb5928d443d2a13b674828260405161150c929190612d3f565b60006118d56002828486612808565b6118de91612e23565b60f01c9050600381146111cc578282604051639a6d49cd60e01b81526004016109d2929190612883565b6000806119168585856111d1565b90925090506119258683611e16565b94509492505050565b611936612138565b60006119458460000151611e4c565b60208501519091501561195f5761195f8460200151611e74565b7f00000000000000000000000000000000000000000000000000000000000000006001600160a01b0316632637a450826040518060a001604052808b63ffffffff1681526020016119af8c611215565b81526020018a815260200189815260200160008960200151111515815250866040518463ffffffff1660e01b81526004016119eb929190612b3a565b60806040518083038185885af1158015611a09573d6000803e3d6000fd5b50505050506040513d601f19601f82011682018060405250810190611a2e9190612e53565b979650505050505050565b6001600160a01b038416611a635760405163e602df0560e01b8152600060048201526024016109d2565b6001600160a01b038316611a8d57604051634a1406b160e11b8152600060048201526024016109d2565b6001600160a01b038085166000908152600660209081526040808320938716835292905220829055801561143057826001600160a01b0316846001600160a01b03167f8c5be1e5ebec7d5bd14f71427d1e84f3dd0314c0f7b2291e5b200ac8c7c3b92584604051611b0091815260200190565b60405180910390a350505050565b60007f0000000000000000000000000000000000000000000000000000000000000000611b3b8184612ed0565b6108b49190612ef2565b6000611b546020828486612808565b610a6a91612f09565b6000611b6d602860208486612808565b611b7691612f27565b60c01c9392505050565b60006108b47f00000000000000000000000000000000000000000000000000000000000000006001600160401b038416612ef2565b6000611bc18484611f56565b509092915050565b6060611bd88260288186612808565b8080601f016020809104026020016040519081016040528093929190818152602001838380828437600092019190915250929695505050505050565b606084848484604051602001611c2d9493929190612f55565b6040516020818303038152906040529050949350505050565b6001600160a01b038316611c71578060076000828254611c669190612fa4565b90915550611ce39050565b6001600160a01b03831660009081526005602052604090205481811015611cc45760405163391434e360e21b81526001600160a01b038516600482015260248101829052604481018390526064016109d2565b6001600160a01b03841660009081526005602052604090209082900390555b6001600160a01b038216611cff57600780548290039055611d1e565b6001600160a01b03821660009081526005602052604090208054820190555b816001600160a01b0316836001600160a01b03167fddf252ad1be2c89b69c2b068fc378daa952ba7f163c4a11628f55a4df523b3ef83604051611d6391815260200190565b60405180910390a3505050565b60006108b47f000000000000000000000000000000000000000000000000000000000000000083612ed0565b8051606090151580611de5578484604051602001611dd192919091825260c01b6001600160c01b031916602082015260280190565b604051602081830303815290604052611e0c565b84843385604051602001611dfc9493929190612fb7565b6040516020818303038152906040525b9150935093915050565b6001600160a01b038216611e4057604051634b637e8f60e11b8152600060048201526024016109d2565b610a8382600083611c46565b6000813414611e70576040516304fb820960e51b81523460048201526024016109d2565b5090565b60007f00000000000000000000000000000000000000000000000000000000000000006001600160a01b031663e4fe1d946040518163ffffffff1660e01b8152600401602060405180830381865afa158015611ed4573d6000803e3d6000fd5b505050506040513d601f19601f82011682018060405250810190611ef89190612ffa565b90506001600160a01b038116611f21576040516329b99a9560e11b815260040160405180910390fd5b610a836001600160a01b038216337f000000000000000000000000000000000000000000000000000000000000000085611f8c565b6001600160a01b038216611f805760405163ec442f0560e01b8152600060048201526024016109d2565b610a8360008383611c46565b604080516001600160a01b038581166024830152848116604483015260648083018590528351808403909101815260849092019092526020810180516001600160e01b03166323b872dd60e01b17905261143091869190600090611ff290841683612040565b905080516000141580156120175750808060200190518101906120159190612b1d565b155b156111cc57604051635274afe760e01b81526001600160a01b03841660048201526024016109d2565b6060610a6a8383600084600080856001600160a01b031684866040516120669190613017565b60006040518083038185875af1925050503d80600081146120a3576040519150601f19603f3d011682016040523d82523d6000602084013e6120a8565b606091505b5091509150610ae48683836060826120c8576120c38261210f565b610a6a565b81511580156120df57506001600160a01b0384163b155b1561210857604051639996b31560e01b81526001600160a01b03851660048201526024016109d2565b5080610a6a565b80511561211f5780518082602001fd5b604051630a12f52160e11b815260040160405180910390fd5b60405180606001604052806000801916815260200160006001600160401b0316815260200161217a604051806040016040528060008152602001600081525090565b905290565b60005b8381101561219a578181015183820152602001612182565b50506000910152565b600081518084526121bb81602086016020860161217f565b601f01601f19169290920160200192915050565b602081526000610a6a60208301846121a3565b6001600160a01b038116811461118657600080fd5b6000806040838503121561220a57600080fd5b8235612215816121e2565b946020939093013593505050565b600060e0828403121561223557600080fd5b50919050565b60006020828403121561224d57600080fd5b81356001600160401b0381111561226357600080fd5b610c1184828501612223565b8351815260208085015190820152600060a08201604060a0604085015281865180845260c08601915060c08160051b8701019350602080890160005b838110156122ea5788870360bf190185528151805188528301518388018790526122d7878901826121a3565b97505093820193908201906001016122ab565b50508751606088015250505060208501516080850152509050610c11565b60006060828403121561223557600080fd5b60008083601f84011261232c57600080fd5b5081356001600160401b0381111561234357600080fd5b60208301915083602082850101111561235b57600080fd5b9250929050565b600080600080600080600060e0888a03121561237d57600080fd5b6123878989612308565b96506060880135955060808801356001600160401b03808211156123aa57600080fd5b6123b68b838c0161231a565b909750955060a08a013591506123cb826121e2565b90935060c089013590808211156123e157600080fd5b506123ee8a828b0161231a565b989b979a50959850939692959293505050565b60008060006060848603121561241657600080fd5b8335612421816121e2565b92506020840135612431816121e2565b929592945050506040919091013590565b803563ffffffff8116811461245657600080fd5b919050565b6000806040838503121561246e57600080fd5b61221583612442565b801515811461118657600080fd5b6000806040838503121561249857600080fd5b82356001600160401b038111156124ae57600080fd5b6124ba85828601612223565b92505060208301356124cb81612477565b809150509250929050565b8151815260208083015190820152604081016108b4565b803561ffff8116811461245657600080fd5b6000806040838503121561251257600080fd5b61251b83612442565b9150612529602084016124ed565b90509250929050565b60006020828403121561254457600080fd5b8135610a6a816121e2565b60008060008060a0858703121561256557600080fd5b61256f8686612308565b935060608501356001600160401b0381111561258a57600080fd5b6125968782880161231a565b90945092505060808501356125aa816121e2565b939692955090935050565b60008083601f8401126125c757600080fd5b5081356001600160401b038111156125de57600080fd5b6020830191508360208260051b850101111561235b57600080fd5b6000806020838503121561260c57600080fd5b82356001600160401b0381111561262257600080fd5b61262e858286016125b5565b90969095509350505050565b60006020828403121561264c57600080fd5b610a6a82612442565b6000806000806060858703121561266b57600080fd5b61267485612442565b9350612682602086016124ed565b925060408501356001600160401b0381111561269d57600080fd5b6126a98782880161231a565b95989497509550505050565b600080600083850360808112156126cb57600080fd5b84356001600160401b038111156126e157600080fd5b6126ed87828801612223565b9450506040601f198201121561270257600080fd5b506020840191506060840135612717816121e2565b809150509250925092565b600060c082019050835182526001600160401b036020850151166020830152604084015161275d604084018280518252602090810151910152565b5082516080830152602083015160a0830152610a6a565b6000806040838503121561278757600080fd5b8235612792816121e2565b915060208301356124cb816121e2565b6000606082840312156127b457600080fd5b610a6a8383612308565b600181811c908216806127d257607f821691505b60208210810361223557634e487b7160e01b600052602260045260246000fd5b634e487b7160e01b600052604160045260246000fd5b6000808585111561281857600080fd5b8386111561282557600080fd5b5050820193919092039150565b6000845161284481846020890161217f565b8201838582376000930192835250909392505050565b81835281816020850137506000828201602090810191909152601f909101601f19169091010190565b602081526000610c1160208301848661285a565b634e487b7160e01b600052603260045260246000fd5b6000823561013e198336030181126128c457600080fd5b9190910192915050565b6000808335601e198436030181126128e557600080fd5b8301803591506001600160401b038211156128ff57600080fd5b60200191503681900382131561235b57600080fd5b6001600160401b038116811461118657600080fd5b63ffffffff61293789612442565b168152602088013560208201526000604089013561295481612914565b6001600160401b03811660408401525087606083015260e0608083015261297f60e08301878961285a565b6001600160a01b03861660a084015282810360c08401526129a181858761285a565b9a9950505050505050505050565b604080519081016001600160401b03811182821017156129d1576129d16127f2565b60405290565b6000602082840312156129e957600080fd5b81516001600160401b0380821115612a0057600080fd5b818401915084601f830112612a1457600080fd5b815181811115612a2657612a266127f2565b604051601f8201601f19908116603f01168101908382118183101715612a4e57612a4e6127f2565b81604052828152876020848701011115612a6757600080fd5b611a2e83602083016020880161217f565b600060408284031215612a8a57600080fd5b612a926129af565b82358152602083013560208201528091505092915050565b600060208284031215612abc57600080fd5b8135610a6a81612914565b60018060a01b038516815283602082015261ffff83166040820152608060608201526000610ae460808301846121a3565b604081526000612b0b60408301856121a3565b828103602084015261171481856121a3565b600060208284031215612b2f57600080fd5b8151610a6a81612477565b6040815263ffffffff8351166040820152602083015160608201526000604084015160a06080840152612b7060e08401826121a3565b90506060850151603f198483030160a0850152612b8d82826121a3565b60809690960151151560c08501525050506001600160a01b039190911660209091015290565b600060408284031215612bc557600080fd5b612bcd6129af565b9050815181526020820151602082015292915050565b600060408284031215612bf557600080fd5b610a6a8383612bb3565b60008235605e198336030181126128c457600080fd5b600060208284031215612c2757600080fd5b610a6a826124ed565b601f8211156111cc576000816000526020600020601f850160051c81016020861015612c595750805b601f850160051c820191505b81811015612c7857828155600101612c65565b505050505050565b6001600160401b03831115612c9757612c976127f2565b612cab83612ca583546127be565b83612c30565b6000601f841160018114612cdf5760008515612cc75750838201355b600019600387901b1c1916600186901b1783556110bf565b600083815260209020601f19861690835b82811015612d105786850135825560209485019460019092019101612cf0565b5086821015612d2d5760001960f88860031b161c19848701351681555b505060018560011b0183555050505050565b60208082528181018390526000906040808401600586901b8501820187855b88811015612e1557878303603f190184528135368b9003605e19018112612d8457600080fd5b8a01606063ffffffff612d9683612442565b16855261ffff612da78984016124ed565b168886015286820135601e19833603018112612dc257600080fd5b9091018781019190356001600160401b03811115612ddf57600080fd5b803603831315612dee57600080fd5b8188870152612e00828701828561285a565b96890196955050509186019150600101612d5e565b509098975050505050505050565b6001600160f01b03198135818116916002851015612e4b5780818660020360031b1b83161692505b505092915050565b600060808284031215612e6557600080fd5b604051606081018181106001600160401b0382111715612e8757612e876127f2565b604052825181526020830151612e9c81612914565b6020820152612eae8460408501612bb3565b60408201529392505050565b634e487b7160e01b600052601160045260246000fd5b600082612eed57634e487b7160e01b600052601260045260246000fd5b500490565b80820281158282048414176108b4576108b4612eba565b803560208310156108b457600019602084900360031b1b1692915050565b6001600160c01b03198135818116916008851015612e4b5760089490940360031b84901b1690921692915050565b6001600160401b0360c01b8560c01b16815263ffffffff60e01b8460e01b16600882015282600c82015260008251612f9481602c85016020870161217f565b91909101602c0195945050505050565b808201808211156108b4576108b4612eba565b8481526001600160401b0360c01b8460c01b16602082015282602882015260008251612fea81604885016020870161217f565b9190910160480195945050505050565b60006020828403121561300c57600080fd5b8151610a6a816121e2565b600082516128c481846020870161217f56fea2646970667358221220422f805b2052d56cc641ee67f03e6e49ce3feb511904fdd42f3b29b631ac8d5664736f6c63430008160033",
  "linkReferences": {},
  "deployedLinkReferences": {}
}